:10000E00E4FDFCC3ED9FEC9E500A0000000DBD0008
:04001E00010C80EF62
:0100220022BB
:060AFB00C2A0C2A1D2A0BE
:100B0100E4FEC2C2C2A1EF30E002D2C2EFC313FFC2
:090B1100D2A10EEEB408EBC2A162
:010B1A0022B8
:040BB200EFF07F8F52
:0F0BB600120AFB0000AF05120B01D2A1C2A02250
:0B09EF0090005DEBF0A3EAF0A3E9F03C
:1009FA00A37480F0E4FD7F8E120BB67C0790006032
:100A0A00E0FF90005DE0FBA3E475F0011206BFA9C8
:100A1A00F0FA120645FD120BB6900060E02402F0CF
:090A2A00DCDB7D807F8E020BB63F
:100B3900D2C2E4FFC2A1E520C313F520A2C29207E5
:0B0B4900D2A10FEFB408EDC2A1AF2055
:010B5400227E
:0C0BE500120AFB0000120B39D2A1C2A0C2
:010BF10022E1
:030B6E00120BE582
:100B7100EF540FFEEF5470FFC3132EFEEF13131348
:040B8100541F2EFFD0
:010B8500224D
:10086B00E4FD7F8F120BB67F81120B6E900081120D
:10087B000BB27F83120B6E900084120BB27F85122A
:10088B000BE5120B71900083120BB27F87120BE5F5
:10089B00120B71900082120BB27F89120BE5120BB7
:1008AB007190007F120BB27F8D120BE5120B71A3AF
:0308BB00EFF02239
:0E0BD700C2A17F647E0012000ED2A1C2A02235
:1007A700540062C0F9A4B0999282F880908883C6F9
:1007B700A18EFF00F7FFBF48007601020408102052
:0607C700408041007E00AD
:100BC500E4FEEF25E0FF92B7D2B5C2B50EEEB4084C
:010BD500F12E
:010BD60022FC
:100A330090007EE02476F582E43400F583E0FF1233
:100A43000BC590007EE02401F582E43400F583E0D9
:100A53002462F582E43400F583E0FF120BC5D2B4BF
:100A6300C2B490007EE004F0C394084002E4F02294
:1008BE0044617465206973202530326264002E25F0
:1008CE0030326264002C2530326264003A253032B8
:1008DE006264000D0A00454550524F4D2073746FEF
:1008EE007265733A003A2530326275006E6F20647D
:1008FE00657669636520636F6D6D616E64210D0AA7
:01090E0000E8
:1007CD0047000100000000000000470008503016EF
:1007DD002110011948001D01020408102040804617
:1007ED000027FF00000000004100310541000F000F
:0C07FD00410032004100000041002500D6
:10080A00900081E0FF75F00A84900008E5F0F0EFAF
:10081A0075F00A84900007F0900084E0FF75F00AF2
:10082A0084900006E5F0F0EF75F00A84900005F078
:10083A00900083E0FF75F00A84900004E5F0F0EF81
:10084A0075F00A84900003F0900082E0FF75F00AC8
:10085A0084900002E5F0F0EF75F00A84900001F050
:01086A00226B
:100B9D00438E805389F0E4F58A758C28C28DD28CF2
:050BAD00D2A9D2AF2225
:100B5500759850438E40538EFE53890F758BE875FB
:090B65008DFFC2ABD28ED2AC228E
:10090F00C212E490002DF0A3E0FBA3E0FAA3E0F9FC
:10091F00741012068BE4900026F0120B55120B9DEB
:10092F00120BD790000FE0FF700790002DE0F4F549
:10093F00E8EFB40111900025E0241DF582E43400A6
:0B094F00F583E0F4F5E8120A3380D8CD
:080003008F993099FDC299228A
:060C1100AE0712000322F1
:03000B0002038B62
:10038B00C0E0C0F0C083C082C0D075D000C000C038
:0D039B0001C002C003C004C005C006C007B9
:1003A800900033E4F0900026E004F0E064C86003B5
:1003B80002051EF090000FE0B4010E900025E00445
:1003C800F0E0D394074002E4F0900032E0700312AA
:1003D800080A900032E064017037FF900000E06F77
:1003E800600F74012FF582E43400F5837412F080F5
:1003F8000D74012FF582E43400F5837413F00FEFC8
:10040800B408D8900000E004F0E0D394084002E477
:10041800F012086B900033E0FF7B017A0079279097
:1004280000387406F012095A900031E024FE606624
:100438000460030205157BFF7A0879BE900080E00E
:10044800900037F01200917BFF7A0879CC90007FFA
:10045800E0900037F01200917BFF7A0879CC900089
:1004680082E0900037F01200917BFF7A0879D390F0
:100478000083E0900037F01200917BFF7A0879DA68
:10048800900084E0900037F01200917BFF7A0879A1
:10049800DA90008180677BFF7A0879E41200917B0B
:1004A800FF7A0879F3900027E0900037F012009166
:1004B8007BFF7A0879F3900028E0900037F012006B
:1004C800917BFF7A0879F3900029E0900037F012C9
:1004D80000917BFF7A0879F390002AE0900037F0CA
:1004E8001200917BFF7A0879F390002BE090003797
:1004F800F01200917BFF7A0879F390002CE09000CD
:1005080037F01200917BFF7A0879E180067BFF7A49
:080518000879FA120091C28D6E
:10052000D007D006D005D004D003D002D001D0002F
:0B053000D0D0D082D083D0F0D0E032D9
:1009A500E4FFEFF582758300A312065EFE74082F3F
:1009B500F582E43400F583EEF00FEFB407E4120698
:1009C50045FFB401069000317401F0EFB4020690C2
:1009D50000317402F0EFB403069000317403F0EFB8
:0909E500B404069000317404F022
:0109EE0022E6
:0300230002053B98
:10053B00C0E0C0F0C083C082C0D075D000C000C086
:0D054B0001C002C003C004C005C006C00707
:1005580020980302062AC29890005CE599F03012B0
:100568000302062A201303020619E0FF90002DE07B
:10057800FE2410F582E43400F583EFF0EED3940105
:10058800500302061374102EF582E43400F583E05C
:1005980064337077740F2EF582E43400F583E064D9
:1005A800CC7068D2127B017A0079101209A59000EC
:1005B80031E024FE601514602514603A2403704766
:1005C8007B017A0079081209EF803CE4FF7B017A0D
:1005D8000079089000617406F0120A73802990006F
:1005E80025E4F090000FE070047F0180027F009006
:1005F800000FEFF08011900032E070047F0180025C
:100608007F00900032EFF0C212C21390002DE00478
:10061800F020130E90005CE0B4AA07D21390002DCE
:02062800E4F0FC
:10062A00D007D006D005D004D003D002D001D00024
:0B063A00D0D0D082D083D0F0D0E032CE
:050BF200120BF7D2FF19
:050BF700007F0BDFFE92
:010BFC0022D6
:0A0BFD00D2FE120BF2C2FE020BF74B
:0A0C0700C2FE120BF2D2FE020BF740
:020AD700AE0768
:100AD900E4FDC2FF120BF7EE30E704D2FE8002C23A
:100AE900FE120BF2EE25E0FE0DEDB408E5C2FF02A1
:020AF9000BF7F9
:100B1B00E4FDD2FF120BF7EE25E0FE30FE0344019D
:0D0B2B00FEC2FF120BF70DEDB408E7AF0698
:010B3800229A
:0A0B8600AC07120BFD7FA0120AD786
:0D0B9000D2FF120BF7A2FEC2FF120BF722DC
:100A7300120B869211AF04120AD7120B909211E453
:100A8300FC900061E0FFECC39F5018120645FF1273
:100A93000AD7120B9082119211740129F9E43AFAE0
:0C0AA3000C80DE120C07301102D322C3BD
:010AAF002224
:100AB000120B869208AF04120AD7120B90920812FA
:100AC0000BFD7FA1120AD7120B909208120B1BAEDE
:060AD00007120C07AF063F
:010AD60022FD
:0E095A00900034EFF0A3EBF0A3EAF0A3E9F075
:10096800E4900039F0900038E0FFA3E0C39F502CDA
:10097800900034E0FF120AB0A3E0FBA3E0FAA3E082
:10098800F9900039E0F582758300EF12069D90001A
:0C09980034E004F0900039E004F080C965
:0109A4002230
:0300000002071BD9
:0C071B00787FE4F6D8FD758122020762A9
:10064500BB010689828A83E0225002E722BBFE02B3
:09065500E32289828A83E49322E6
:10065E00BB010CE58229F582E5833AF583E0225051
:10066E0006E92582F8E622BBFE06E92582F8E2229B
:0D067E00E58229F582E5833AF583E49322B5
:10068B00BB010689828A83F0225002F722BBFE014E
:02069B00F32248
:10069D00F8BB010DE58229F582E5833AF583E8F093
:1006AD00225006E92582C8F622BBFE05E92582C83F
:0206BD00F22227
:1006BF00A3F8E0C5F025F0F0E582158270021583EE
:0606CF00E0C838F0E8224B
:10002600E5082437F582E43400F583E005082290DC
:100036000034300F03900037E475F0011206D50244
:1000460006452008E97F2ED2088018EF540F249029
:10005600D43440D4FF300C0BEF24BFB41A00500345
:100066002461FFE50960021509050CE50C7002051F
:100076000B300F0E900034E475F0011206D5EF0236
:10008600068B020C117403D20F8003E4C20FF5082D
:100096009000341206ECE4F509F50BF50CE5096061
:1000A600077F2012006980F5750AFFC209C208C2DF
:1000B6000AC20BC20DC20EC210120035FF700D30FF
:1000C6000F057F0012007AAF0CAE0B22B4255FC27B
:1000D600D5C20C120035FF24D0B40A00501A75F0B0
:1000E6000A780930D50508B6FF0106C6A426F6200B
:1000F600D5047002D20B80D924CFB41A00EF500475
:10010600C2E5D20C02027BD20980C6D20880C0D2D8
:100116000A80BCD2D580BAD20D80B47F2012006985
:10012600200A077401B5090040F1120026FF1200EB
:10013600690200A3D210D20E8095120026FB12008F
:1001460026FA120026F94A4B7006794C7A037BFF91
:10015600200A2EE509602A7E008E8275830012062B
:100166005E60060EEE650A70F0C2D5EBC0E0EAC02E
:10017600E0E9C0E0EE1202C2D0E0F9D0E0FAD0E049
:10018600FB120645FF60AAEBC0E0EAC0E0E9C0E06A
:10019600120069D0E02401F9D0E03400FAD0E0FB87
:1001A600E50A0460DCD50AD980877BFF7A0279BE2E
:1001B600D20A809C791080027908C20EC21080088B
:1001C600D2D5790A8004790AC2D5E50A047002F507
:1001D6000AE4FAFDFEFF120026FC7B082009131232
:1001E6000026FD7B1030080A120026FE120026FFAC
:1001F6007B20EC3382D592D55013C3E43008069F9A
:10020600FFE49EFEE42009039DFDE49CFCE4CBF89C
:10021600C209EC700CCFCECDCCE824F8F870F38090
:1002260017C3EF33FFEE33FEED33FDEC33FCEB3358
:10023600FB994002FB0FD8E9EB300905F8D0E0C482
:1002460048B209C0E00AEC4D4E4F78207B0070C2E0
:10025600EAB50A0040BCC0E01202C4D0F0D0E020EB
:100266000904C4C0E0C4B209C0F0120052D0F0D5EF
:10027600F0EB0200A31206F501405301BA58011132
:100286004C010D4201BE4F01C64401C64901264339
:0802960001CC5501B04601B096
:10029E004501B047036C5001152D01192E013C2B61
:1002AE00011D23013A2003552A00D54800000134D0
:1002BE003F3F3F00790AA2D5200B14300D09B9102B
:1002CE00020404B9080104A2D5200E025001042034
:1002DE000A68920AB509005034C0E07F20300B192D
:1002EE007F30A20A720E720D500F12031BC20AC289
:1002FE000EC20DC2107F30800F300D03E9C0E01228
:10030E000069300D03D0E0F9D0E0B509CC300D17FF
:10031E007F30B9100C1200697F58300C077F78803F
:10032E0003B90803120069300A057F2D0200697FA8
:10033E00202010F87F2B200EF322920A80CF286EF9
:10034E00756C6C2900D2091200263009F8C20978A2
:10035E000930D50108F60200D52D50434958120038
:10036E00262403B405004001E49003679312005A5B
:0D037E00743A12005AD20B7509040201BA3C
:1007270002090FE493A3F8E493A34003F68001F2D0
:1007370008DFF48029E493A3F85407240CC8C333D3
:10074700C4540F4420C8834004F456800146F6DFA2
:10075700E4800B01020408102040809007A7E47E84
:10076700019360BCA3FF543F30E509541FFEE49397
:10077700A360010ECF54C025E060A840B8E493A35E
:10078700FAE493A3F8E493A3C8C582C8CAC583CA89
:10079700F0A3C8C582C8CAC583CADFE9DEE780BE41
:0108090000EE
:1006D500F8E0FBA3A3E0F925F0F0E58215827002AE
:0706E5001583E0FA38F02252
:0906EC00EBF0A3EAF0A3E9F0220F
:1006F500D083D082F8E4937012740193700DA3A394
:1007050093F8740193F5828883E4737402936860A7
:06071500EFA3A3A380DFA7
:00000001FF
