:100475004B65793D300D0A0D0A004B65793D310D0F
:100485000A0D0A004B65793D320D0A0D0A004B65D0
:10049500793D330D0A0D0A004B65793D340D0A0D82
:1004A5000A004B65793D350D0A0D0A004B65793D0E
:1004B500360D0A0D0A004B65793D370D0A0D0A0008
:1004C5004B65793D380D0A0D0A004B65793D390DAF
:1004D5000A0D0A004B65793D31300D0A0D0A004BB6
:1004E50065793D31310D0A0D0A004B65793D313293
:1004F5000D0A0D0A004B65793D31330D0A0D0A00D1
:100505004B65793D31340D0A0D0A004B65793D3156
:06051500350D0A0D0A007D
:1006EE00759850438E40538EFE53890F758BE87567
:0B06FE008DFFC2ABD28ED2ACD2AF2277
:100382001206EE12051B8F09E50964106003850948
:100392001FE51F75F00A84FD7F06120003E51F7535
:1003A200F00A84ADF07F0712000385091EE51EB432
:1003B200100050CF9003BDF82828730203ED02030A
:1003C200F50203FD02040502040D02041502041DD8
:1003D20002042502042D02043502043D02044502F2
:1003E200044D02045502045D0204697BFF7A04791C
:1003F20075806E7BFF7A04797F80667BFF7A047951
:1004020089805E7BFF7A04799380567BFF7A047938
:100412009D804E7BFF7A0479A780467BFF7A047920
:10042200B1803E7BFF7A0479BB80367BFF7A047908
:10043200C5802E7BFF7A0479CF80267BFF7A0479F0
:10044200D9801E7BFF7A0479E480167BFF7A0479D7
:10045200EF800E7BFF7A0479FA80067BFF7A0579BA
:10046200051200880203857BFF7A05791012008845
:03047200020385FD
:080755008F993099FDC2992231
:06075D00AE071207552251
:030023000207339E
:10073300309805C298859908309905751E10C2999D
:010743003283
:1006CD001422C0F9A4B0999282F880908883C6A1B3
:1006DD00868EFF00BF7F083601020408102040807F
:10070900EFD39400400E0000007E0B7DBEDDFEDEBF
:04071900FC1F80EC55
:01071D0022B9
:10074400E4FEEF25E0FF92B7D2B5C2B50EBE08F2C3
:010754002282
:1000030074362FF8E6FF12074474222DF8E6FF1228
:0D0013000744D2B4C2B47F057E0002070985
:10071E00EFD39400400E0000007E0B7DBEDDFEDEAA
:04072E00FC1F80EC40
:0107320022A4
:10051B00E4FC7580F0E58064F070030205A87F0AA7
:10052B007E0012071EE58064F060727580F0AF806C
:10053B00EF2490601B24C0601224E0600924F0704B
:10054B0012750A03800D750A028008750A01800373
:10055B00E4F50A75800FE580B40D0BE580B40B064E
:10056B00E58064076000E580B40D067404250AF588
:10057B000AE580B40B067408250AF50AE580B40772
:10058B0006740C250AF50AECC394325010E580640E
:10059B000F600A7F0A7E0012071E0C80EAE580B40A
:0705AB00F003750A10AF0A0E
:0105B2002226
:03000000020641B4
:0C064100787FE4F6D8FD75813D02068844
:10002600E519240DF8E6051922780A300702780D3D
:10003600E475F00112060B0205B32000EB7F2ED209
:10004600008018EF540F2490D43440D4FF30040BB2
:10005600EF24BFB41A0050032461FFE51A600215AD
:100066001A051DE51D7002051C30070D780AE4759A
:10007600F00112060BEF0205F902075D7403D207C1
:100086008003E4C207F5198B0A8A0B890CE4F51A7A
:10009600F51CF51DE51A60077F2012006180F575D5
:1000A6001BFFC201C200C202C203C205C206C208C9
:1000B60012002FFF700D3007057F00120072AF1D72
:1000C600AE1C22B4255FC2D5C20412002FFF24D075
:1000D600B40A00501A75F00A781A30D50508B6FF2A
:1000E6000106C6A426F620D5047002D20380D924C0
:1000F600CFB41A00EF5004C2E5D204020272D20154
:1001060080C6D20080C0D20280BCD2D580BAD205C9
:1001160080B47F201200612002077401B51A0040E6
:10012600F1120026FF12006102009AD208D2068060
:1001360095120026FB120026FA120026F94A4B7089
:100146000679437A037BFF20022EE51A602A7E0099
:100156008E827583001205CC60060EEE651B70F06C
:10016600C2D5EBC0E0EAC0E0E9C0E0EE1202B9D0C9
:10017600E0F9D0E0FAD0E0FB1205B3FF60AAEBC0CD
:10018600E0EAC0E0E9C0E0120061D0E02401F9D065
:10019600E03400FAD0E0FBE51B0460DCD51BD98017
:1001A600877BFF7A0279B5D202809C79108002792A
:1001B60008C206C2088008D2D5790A8004790AC224
:1001C600D5E51B047002F51BE4FAFDFEFF120026BE
:1001D600FC7B08200113120026FD7B1030000A125A
:1001E6000026FE120026FF7B20EC3382D592D550E6
:1001F60013C3E43000069FFFE49EFEE42001039D46
:10020600FDE49CFCE4CBF8C201EC700CCFCECDCC67
:10021600E824F8F870F38017C3EF33FFEE33FEEDF2
:1002260033FDEC33FCEB33FB994002FB0FD8E9EBD3
:10023600300105F8D0E0C448B201C0E00AEC4D4EEA
:100246004F78207B0070C2EAB51B0040BCC0E012AC
:1002560002BBD0F0D0E0200104C4C0E0C4B201C0AB
:10026600F012004AD0F0D5F0EB02009A12061B01FC
:10027600375301B15801084C01044201B54F01BD85
:0F0286004401BD49011D4301C35501A74601A70E
:100295004501A747036350010C2D01102E01332B97
:1002A500011423013120034C2A00CC480000012B06
:1002B5003F3F3F00790AA2D5200314300509B91044
:1002C500020404B9080104A2D52006025001042045
:1002D50002689202B51A005034C0E07F203003193D
:1002E5007F30A20272067205500F120312C202C2BB
:1002F50006C205C2087F30800F300503E9C0E01251
:100305000061300503D0E0F9D0E0B51ACC3005170F
:100315007F30B9100C1200617F583004077F788058
:1003250003B908031200613002057F2D0200617FC9
:10033500202008F87F2B2006F322920280CF286E1A
:10034500756C6C2900D2011200263001F8C20178C3
:100355001A30D50108F60200CC2D50434958120039
:10036500262403B405004001E490035E9312005275
:0D037500743A120052D203751A040201B14D
:10064D00020382E493A3F8E493A34003F68001F23E
:10065D0008DFF48029E493A3F85407240CC8C333AE
:10066D00C4540F4420C8834004F456800146F6DF7D
:10067D00E4800B01020408102040809006CDE47E3A
:10068D00019360BCA3FF543F30E509541FFEE49372
:10069D00A360010ECF54C025E060A840B8E493A339
:1006AD00FAE493A3F8E493A3C8C582C8CAC583CA64
:1006BD00F0A3C8C582C8CAC583CADFE9DEE780BE1C
:0106ED00000C
:1005B300BB010689828A83E0225002E722BBFE0246
:0905C300E32289828A83E4932279
:1005CC00BB010CE58229F582E5833AF583E02250E4
:1005DC0006E92582F8E622BBFE06E92582F8E2222E
:0D05EC00E58229F582E5833AF583E4932248
:1005F900BB010689828A83F0225002F722BBFE01E1
:02060900F322DA
:10060B00FAE6FB0808E6F925F0F618E6CA3AF622F0
:10061B00D083D082F8E4937012740193700DA3A36E
:10062B0093F8740193F5828883E473740293686082
:06063B00EFA3A3A380DF82
:00000001FF
